:100000000C9434000C9451000C9451000C94510049
:100010000C9451000C9451000C9451000C9451001C
:100020000C9451000C9451000C9451000C9451000C
:100030000C9451000C9451000C9451000C945100FC
:100040000C9453000C9451000C9451000C945100EA
:100050000C9451000C9451000C9451000C945100DC
:100060000C9451000C94510011241FBECFEFD8E026
:10007000DEBFCDBF12E0A0E0B1E0E8E7F6E202C0EB
:1000800005900D92A437B107D9F714E0A4E7B2E0C8
:1000900001C01D92A73AB107E1F70E948C020C94AF
:1000A0003A130C9400001F920F920FB60F92112476
:1000B0008F939F9380917402909175020196909313
:1000C000750280937402A89A9F918F910F900FBE32
:1000D0000F901F901895EEE6F0E08081816080839C
:1000E00085B5856085BD78940895F89480917402F3
:1000F00090917502789408952A98962F9F71982B65
:100100009EBD0DB407FEFDCF1EBC0DB407FEFDCF96
:1001100067FF04C01EBC0DB407FEFDCF8EB52A9A42
:1001200008952A986F71682B6EBD0DB407FEFDCF40
:100130004EBD0DB407FEFDCF2A9A08959C01FB0128
:100140002A988AE38EBD0DB407FEFDCF08C01EBC01
:100150000DB407FEFDCF8EB581932150304021159F
:100160003105A9F72A9A08959C01FB012A988AE78C
:100170008EBD0DB407FEFDCF08C080818EBD0DB4CD
:1001800007FEFDCF31962150304021153105A9F7EA
:100190002A9A08951F93CF93DF93182FC82FD0E08A
:1001A000C076D0708091F20290E0C817D90791F024
:1001B00080EA6FE143E00E94910085E0D595C79504
:1001C0008A95E1F780E86FE14C2F0E94910010764C
:1001D0001093F202DF91CF911F9108951F93182F72
:1001E0000E94CA0080E0612F0E947C001F91089548
:1001F0000F931F93182F062F0E94CA0080E4612FCF
:10020000402F0E9491001F910F9108950F931F930B
:10021000682F84ED0E94F80082ED61E00E94F800F2
:100220008AEE0E94EE0080FDFBCF82ED60E00E942E
:10023000F80088ED0E94EE00082F10E089ED0E9482
:10024000EE00282F30E0202B312BC9011F910F9198
:1002500008950F931F93982F162F072F84ED692F62
:100260000E94F80086ED612F0E94F80087ED602F54
:100270000E94F8008AEE0E94EE0080FDFBCF1F91E5
:100280000F910895CF92DF92EF92FF920F931F93F9
:10029000CF93DF938C017B01EA01690180E86FE174
:1002A00040E80E94910080EA6FE140E80E949100DE
:1002B00082E060E00E94F80083E060E00E94F800C5
:1002C000CE01800F682F86E00E94F8009E01200F6B
:1002D000311F87E0632F0E94F8008AE760E040E06A
:1002E0000E949100C801B7010E94B400209721F03C
:1002F000CE01B6010E94B40080E86FE148E00E94A0
:100300009100DF91CF911F910F91FF90EF90DF90BF
:10031000CF900895EF92FF920F931F93CF93DF93A7
:10032000EC017B0189E30E94EE00882319F400E0D0
:1003300010E04DC080E06091F0020E94F8006091F2
:10034000F10281E00E94F8008AE360E00E947C00F4
:10035000082F10E01093F1020093F0028AE360E0AE
:100360000E947C00382F20E0202B312B3093F102AB
:100370002093F0028AE360E00E947C00082F10E0E6
:100380008AE360E00E947C00382F20E0022B132BD0
:100390008AE360E00E947C008AE360E00E947C00C7
:1003A000C017D10708F48E01C801B7010E949E0052
:1003B0008CE06091F0020E94F8006091F1028DE003
:1003C0000E94F80080E86EE140E40E949100C801BC
:1003D000DF91CF911F910F91FF90EF9008950895B5
:1003E000229A2A9A2D9A259A2498239A229A8CB591
:1003F00080618CBD8CB5877F8CBD8CB58F7D8CBDAD
:100400008CB58E7F8CBD8CB58D7F8CBD8DB581609C
:100410008DBD8CB580648CBD8FEF60E04FEF0E9486
:10042000910085E88A95F1F700008DE10E94EE00C9
:1004300080FFFBCF80E096E09093F1028093F00282
:1004400088E060E00E94F80089E066E00E94F80021
:100450008CE060E00E94F8008DE066E00E94F80009
:100460008AE06FEF0E94F8008BE06FE10E94F800D5
:1004700084E060E00E94F80085E060E00E94F800FF
:1004800080EC6DE00E94F80081EC60E00E94F800D2
:1004900080E862EC42E30E94910086EC62E10E94F7
:1004A000F80087EC6CE00E94F80084EC62E10E94A6
:1004B000F8008AEC6EEE0E94F8008BEC65E00E947A
:1004C000F80084EE60E00E94F80085EE6DEB0E947B
:1004D000F80082EE6BE30E94F80083EE63E30E9473
:1004E000F80080EE65E00E94F80081EE61E70E946E
:1004F000F80080E160E071E00E9429018FE10E9434
:10050000CA0080E86BE140EC0E94910080E86FE156
:1005100044E00E94910008954F925F926F927F9203
:100520008F929F92BF92CF92DF92EF92FF920F93A2
:100530001F93DF93CF93CDB7DEB728970FB6F8940C
:10054000DEBF0FBECDBF0E946B008E010F5F1F4F3D
:10055000C8016FE070E00E948C0735E0E32EF12CBB
:10056000EC0EFD1EC70166E371E00E948C0787E672
:1005700090E00E949A070E94D70780E091E00E94D5
:1005800005138AE291E00E94051388E391E00E943E
:100590000513389A8BE491E00E9405130E94310400
:1005A0008CE591E00E9405130E94810881E791E0AB
:1005B0000E94051388E891E00E94051310927E02C4
:1005C0008DEB80937F028BE38093800283E38093A3
:1005D000810285E08093820281E7809383028CE927
:1005E00091E00E94051320EC38EA30936E032093CB
:1005F0006D0385E09AE09093700380936F033093CE
:1006000066032093650385E091E0909368038093EF
:1006100067038FEF9FEF90936A03809369038FEFD7
:1006200090E090936C0380936B030E9457078FEACE
:1006300091E00E940513109277021092760223E354
:10064000422E512C9DE2692E712CB02EC12E82E3D8
:10065000882E83E0982EDE2CEF2C809176029091EC
:1006600077028333910521F18433910538F50097A2
:1006700019F08D9719F50BC0409A88E792E06FE169
:1006800070E00E948C07709277026092760288E791
:1006900092E00E946A07892BA9F0409888E792E0CF
:1006A0006FE170E00E948C075092770240927602D0
:1006B00088E792E00E946A07892B21F01092770266
:1006C000109276020E94550490932603809325038E
:1006D000892B91F100917D0310917E0380E098E0D9
:1006E0000E9430090817190779F40E94721081E0FE
:1006F0000E945F098091250390912603892B09F4BC
:10070000ACCF0E945C1115C000917D0310917E0357
:1007100086E098E00E9430090817190709F09DCF7C
:100720000E94A6108091250390912603892B09F43D
:1007300094CF0E94390491CF8B2D9C2D0E946A0783
:10074000892B09F48ACF8B2D9C2D0E9460079092F3
:1007500031038092300382E00E945F09809125037B
:1007600090912603892B21F00E945C110E9439048C
:100770008D2D9E2D0E946A07892B09F46ECF8D2D39
:100780009E2D0E9460070E945E1267CFCF92DF927B
:10079000EF92FF920F931F938C016C010894C11C80
:1007A000D11C84EEF80160810E94F8007601089463
:1007B000E11CF11C85EEF80161810E94F8008701BF
:1007C0000F5F1F4F82EEF60161810E94F80083EEF9
:1007D000F70161810E94F80080EEF80161810E94BA
:1007E000F80081EE0F5F1F4FF80161810E94F80051
:1007F0001F910F91FF90EF90DF90CF900895EF92AF
:10080000FF920F931F937C0184EE0E94EE00F7018C
:1008100081938F0185EE0E94EE00F70181837801BC
:100820000894E11CF11C82EE0E94EE00F801818325
:1008300087010F5F1F4F83EE0E94EE00F701818357
:1008400080EE0E94EE00F801818381EE0E94EE00AE
:100850000F5F1F4FF80181831F910F91FF90EF9061
:1008600008950E94F00184E166E774E00E94290186
:10087000089540912503509126034733510540F4D4
:10088000CA0161E773E040E050E020E030E00AC0D8
:100890004653504020912E0330912F0386E390E081
:1008A00061E773E00E94420108958CE291E061E704
:1008B00073E00E948A010895FC018489863049F51D
:1008C00080912D0380FF25C082859385A091300300
:1008D000B091310352964D915C91539724813581AB
:1008E0004817590768F4841B950B938782875296A3
:1008F0008D919C915397280F391F3583248306C00F
:10090000280F391F358324831386128681E0848B58
:10091000089580E00895FC012289338980899189B6
:10092000281B390BC9010895FC0184859585892B05
:1009300011F081E008958489823021F483E0848B72
:1009400080E0089580912D0390E0969587958170C1
:1009500008951F93CF93DF93EC01162F8A819B811B
:10096000009729F08B51914009F073C010C02A897B
:100970003B89888599859F878E87398B288B8C85C5
:100980009D85892BB9F58BE191E09B838A83CE010C
:100990000E949404882309F45FC082E08C8B8091CC
:1009A0002E0390912F039F838E8380912503909136
:1009B00026039D878C871EC0EE81FF812081EE85F6
:1009C000FF8520838E819F8101969F838E838E85F4
:1009D0009F8501969F878E878C859D8501979D8732
:1009E0008C87888999890197998B888B211711F4B5
:1009F00082E021C088899989892B21F08C859D8589
:100A0000892BD1F68C859D85892B79F480E013C0E4
:100A1000EE81FF818191215030403D872C87FF83FB
:100A2000EE83811711F483E006C02C853D852115E6
:100A3000310571F781E081FFA2CF2A893B8988893E
:100A400099892817390729F41C8A1B821A8280E0A9
:100A500003C01B821A8282E0DF91CF911F9108951B
:100A6000FC01148A1586148660877187538B428B2C
:100A700066877787518B408B118210821382128296
:100A80000895CF93DF93EC018C89863031F4809107
:100A90002D0382FD02C080E013C02A853B85E091D2
:100AA0003003F0913103628973898C819D816217D3
:100AB000730708F0B9010E94340986E08C8B81E04D
:100AC000DF91CF9108951F93CF93DF93EC018A813B
:100AD0009B81009721F08158914011F511C041157B
:100AE000510521F41B821A8281E01DC07D836C8335
:100AF0005B874A871C8A0FC081E891E09B838A83C9
:100B0000CE010E945C04182FCE010E9441051823DB
:100B100011F480E008C08A859B85892B69F71C8ABF
:100B20001B821A8282E0DF91CF911F910895CF93AB
:100B3000DF93EC018A819B81009729F086539140D5
:100B400009F08AC010C02A893B89888599859F87CA
:100B50008E87398B288B8C859D85892BE1F486E3E4
:100B600091E09B838A83CE010E949404882309F438
:100B700076C089EC91E00E94051382E08C8B809115
:100B80002E0390912F039F838E8380912503909154
:100B900026039D878C87EC85FD8528893989E21796
:100BA000F307F0F46E817F818E859F85AF010E94EF
:100BB000F5128E859F852C853D85820F931F9F871B
:100BC0008E8788899989821B930B998B888B8E815C
:100BD0009F81820F931F9F838E831D861C86BBCFB0
:100BE0008E859F856E817F81E217F307B1F4AF0197
:100BF0000E94F5128E859F852C853D85820F931F5F
:100C00009F878E87198A188A8E819F81820F931FF2
:100C10009F838E831D861C8625C0A9010E94F51224
:100C20008E859F8528893989820F931F9F878E879C
:100C30008C859D85821B930B9D878C878E819F81E0
:100C4000820F931F9F838E83198A188A0BC01C8A78
:100C50001B821A8280E003C01B821A8282E0DF912D
:100C6000CF9108952A893B8988899989281739075E
:100C700099F7EDCFCF93DF93EC018C89863031F477
:100C800080912D0382FD02C080E013C02A853B8540
:100C9000E0913003F0913103628973898C819D81E9
:100CA0006217730708F0B9010E94490986E08C8B2E
:100CB00081E0DF91CF910895CF92DF92EF92FF9282
:100CC0001F93CF93DF93EC017B016A018A819B81A3
:100CD000009721F08E3E910579F51EC061157105D2
:100CE00021F41B821A8281E02AC0CA01FB01099506
:100CF0009B878A8780912E0390912F039D838C83FD
:100D00001C8A80912D0382FF03C0C601F70109955B
:100D10008EEE90E09B838A83CE010E945C04182FA4
:100D2000CE010E943A06182311F480E008C08A859B
:100D30009B85892B31F71C8A1B821A8282E0DF9106
:100D4000CF911F91FF90EF90DF90CF9008951F9368
:100D5000CF93DF93EC018A819B81009721F08F3C38
:100D6000910511F511C04115510521F41B821A821C
:100D700081E01DC07D836C835B874A871C8A0FC01E
:100D80008FEC90E09B838A83CE010E945C04182F35
:100D9000CE010E943A06182311F480E008C08A852B
:100DA0009B85892B69F71C8A1B821A8282E0DF915E
:100DB000CF911F910895CF93DF93C0913003D091CD
:100DC000310380912D0386FF08C0CE014C9660E070
:100DD00070E040E050E00E9430058CED91E00E9410
:100DE00005138C8D9D8D8732910599F1883291057F
:100DF00048F48532910589F086329105E0F4892B1B
:100E000041F050C08832910591F1899709F04AC0AC
:100E10003CC085E290E09D8F8C8FCE014C966EEEAB
:100E200071E041E150E00E94A7068823E9F186E2E3
:100E300090E09D8F8C8FCE014C9660E072E049E18E
:100E400050E00E94A706882379F187E290E09D8F09
:100E50008C8FCE014C966AE172E042E050E00E9435
:100E6000A706882309F188E290E09D8F8C8FCE0140
:100E70004C966DE172E041E250E00E94A7068823A3
:100E800099F089E290E09D8F8C8FCE014C966AE1BB
:100E900072E042E050E00E94A706882329F080E13A
:100EA00080932D031D8E1C8EDF91CF9108958FE3CB
:100EB00092E00E94051380E090E50E9405090895E4
:100EC000FC018081918122813381820F931F918364
:100ED000808308950F931F938C010E94750040E05A
:100EE00050E0F80120813181821B930B22813381F4
:100EF0008217930710F041E050E0CA011F910F9153
:100F000008950F931F938C010E947500F80191833F
:100F100080831F910F9108950F931F938C01FC0103
:100F2000738362830E947500F801918380831F910F
:100F30000F9108959093C5008093C400E1ECF0E018
:100F4000808188618083E0ECF0E080818260808332
:100F5000E2ECF0E08081866080830895982F8A30EB
:100F600009F49DE08091C00085FFFCCF9093C600FE
:100F70000895FC010BC0982F8A3009F49DE0809100
:100F8000C00085FFFCCF31969093C60080818823F6
:100F900091F70895982F8A3009F49DE08091C00060
:100FA00085FFFCCF9093C60080E090E0089588E52F
:100FB00092E09093A4048093A304089590938502F3
:100FC000809384020895FC015381560F50932C03A3
:100FD000272F33274281420F40932B03A181A093F7
:100FE0002A03E081E0932903842F90E0821793077E
:100FF00048F48A2F8F5F80932A03882319F4EF5FC8
:10100000E0932903852F90E070708617970790F47E
:10101000842F8F5F80932B03882361F480912A03B0
:101020008F5F80932A03882329F4809129038F5F9F
:101030008093290308959C0141505040460F571F4B
:10104000FB010EC0708160E08181DB01A80FB11D42
:101050002A0F3B1F2A173B0710F42F5F3F4F329692
:10106000E417F50778F3E417F50749F4908180E079
:10107000280F391F2817390710F42F5F3F4FC90178
:1010800008959C01AB0180E090E0B9010E941B082B
:10109000282F892F922F089580E090E06FE773E06A
:1010A00044E150E00E941B08009719F42FEF3FEF36
:1010B00002C0382F292FC90108950F931F93009163
:1010C000820310E0045110409091810380E0080FEA
:1010D000191FC80106966BE873E048E050E00E94D3
:1010E0001B0863E973E0A8010E941B08009719F42C
:1010F0002FEF3FEF02C0382F292FC9011F910F9109
:101100000895109264031092630310924B0381E0E0
:1011100080938C0280E094E090938B0280938A020B
:101120000895DC0140914B03E0913603F0913703C1
:1011300020918A0230918B022F5F3F4F5DE7203074
:10114000350710F020E030E1922F832F442319F06F
:10115000E817F90789F320938A0230938B0280E025
:1011600090E0442329F410928C02E2E3F3E00AC0F9
:10117000473011F482E393E0FC0181E080938C021C
:10118000309779F182E0818F809186028487809107
:101190008702858780918802868780918902878768
:1011A00086EF90E0938B828B958B848B81E090E02F
:1011B000918B808B138E81E0828F83E0808F168AE3
:1011C00080E1878B34832583778366838D919C911F
:1011D00011979183808312968D919C91139793839D
:1011E0008283CF010895209163033091640328170F
:1011F000390739F410928C02109264031092630341
:10120000089581E080938C0208959C01809163038E
:1012100090916403892B39F410928C02309364030B
:1012200020936303089581E080938C020895BC01AC
:10123000809130039091310308960E94E307E0917A
:101240003003F091310380912903808780912A0334
:10125000818780912B03828780912C038387089557
:10126000282F892F922F0895AC019B01161617067F
:101270007CF460939F043093A004809127039091A5
:1012800028034817590721F0BA01A9010E94EC125E
:101290000895AC01FB0160939F04F093A00416161F
:1012A000170664F4209127033091280382179307CF
:1012B00029F0C901BA01AF010E94F5120895CF9338
:1012C000DF93C0913003D091310327EA33E03093AC
:1012D0002F0320932E03309328032093270383307A
:1012E00059F4898D8F70833009F048C688899989AF
:1012F000892B09F043C689C0823009F08CC08091E7
:1013000089028F5F80938902882399F480918802F3
:101310008F5F80938802882361F4809187028F5FBA
:1013200080938702882329F4809186028F5F8093BF
:10133000860210922603109225031092A0041092A8
:101340009F04298D273011F0253041F48A8D8F5F5D
:101350008A8F883709F012C6198E10C6222309F425
:101360000DC688899989892B09F44BC08A8D8150D3
:101370008A8F8F5F09F002C63B8D383029F02150EB
:10138000223048F4353039F4198E80E880932D03EB
:101390000E94DB0694C4353010F080E307C083E080
:1013A00090E002C0880F991F3A95E2F78A8F8B8DE3
:1013B0008F5F8B8F898D90E08F7090708330910557
:1013C000D1F08430910544F48130910509F42DC2A7
:1013D000029709F0D3C50CC08630910509F4FCC30F
:1013E0008830910509F4F8C3049709F0C7C5F4C320
:1013F0001092A0031DC284E080932D030E94DB069F
:1014000099C42F70233009F0B9C588E080932D036B
:101410000E94DB064BC4E901A89780917F038534C5
:1014200009F0ACC59091810380E020918203AC016A
:10143000420F511D80912503909126038417950733
:1014400008F49CC55093260340932503809185039F
:1014500090E08F739070892B09F090C5809186037E
:10146000882309F08BC520916D0330916E03809124
:101470006602909167022817390731F480916F0353
:1014800090917003892BA1F080918F03909190032C
:101490008217930709F072C520919103309192034E
:1014A00080916F03909170032817390709F066C582
:1014B0000E944C088F5F9F4F09F060C580918803A0
:1014C0008630D1F1813009F059C58091930388307D
:1014D00009F054C51092930380919503909196035F
:1014E0002FEF873F920710F0099601C0089690935E
:1014F00096038093950380918B0390918C03909336
:10150000900380938F0380918D0390918E0390932D
:1015100092038093910380916D0390916E03909359
:101520008C0380938B0380916F0390917003909351
:101530008E0380938D0326C50E945D088F5F9F4FA9
:1015400009F01CC540914B03442369F12091950398
:10155000309196038091360390913703281739070D
:1015600011F5209193033091940380913803909169
:10157000390328173907B9F420918B0330918C0374
:1015800080913203909133032817390761F4209139
:101590008D0330918E038091340390913503281789
:1015A000390709F45DC18091A0038F738230F1F493
:1015B000809195039091960390938F0280938E0271
:1015C00010928C0241E00EC020918E0230918F0269
:1015D00080916303909164032817390709F46EC062
:1015E00040938C0280918C02882371F38091A00338
:1015F00082FDC4C484E189A388E290E0909326032D
:101600008093250380E588A390919A0380919E039F
:101610008B8F3091990380919D038A8F3E8F4091EB
:10162000980380919C03898F4D8F2091970320937D
:101630008C0280919B03888F2C8F9F5F9F8F9923B3
:1016400061F4832F8F5F8E8F882339F4842F8F5F0F
:101650008D8F882311F42F5F2C8F2091930330916D
:10166000940330938F0220938E0280919503909182
:1016700096039D8B8C8B3F8B2E8B80918B0390914F
:101680008C039093900380938F0380918D039091AE
:101690008E03909392038093910380916D039091B8
:1016A0006E0390938C0380938B0380916F039091D2
:1016B000700390938E0380938D0322C410928C024A
:1016C000C0E0D0E021E014C080914B03882319F4DE
:1016D000C2E3D3E014C0873049F4209729F09091F9
:1016E0004C038A8D891710F4C2E3D3E020938C0257
:1016F00080918C02882341F3209709F43FC4D09352
:101700003103C093300383E08A8F888F1E8A84E080
:101710008F8B1B8E80919503909196039D838C8374
:1017200080919303909194039F838E8380918B0388
:1017300090918C039983888380918D0390918E037F
:101740009B838A8381E0898F809186028C87809138
:1017500087028D87809188028E87809189028F878A
:1017600081E090E0998B888B80919A038B878091A0
:1017700099038A8780919803898780919703888746
:1017800081E090E00E94170980919F0390E0807FA4
:101790009070813591050CF448C010928C0233C0D2
:1017A000F901EF58FC4F86A980938D028823E9F157
:1017B000813021F44F5F40938C0225C08230B9F410
:1017C00087A98430A1F430AD20E081AD90E0822B78
:1017D000932B90938F0280938E02873F910510F098
:1017E00086EF90E09B8B8A8B9D8B8C8B1EC090919B
:1017F0008C02E92FF0E0EF58FC4F87A98823A9F06D
:10180000890F80938C0240918C02242F30E08091CC
:101810009F0382958F7090E00597880F991F880F1E
:10182000991F281739070CF4BBCF80E18093A003E0
:101830008091A00382608093A00382E08093A7033D
:1018400084E08093A8031092A90386EF8093AA03F3
:101850008CE290E0909326038093250380E6FEC2FD
:1018600082E393E0909331038093300310922D0331
:101870008091A00382FF04C010924B0380E288C2D3
:1018800080919F0382958F70880F880F80938C02C0
:10189000209125033091260324513040281B310923
:1018A00030932603209325034F70423029F4809112
:1018B000A0038F73823129F1232B39F48091A00387
:1018C00090E083709070892BE1F090919703809164
:1018D0003A03981709F0B7C29091980380913B039F
:1018E000981709F0B0C29091990380913C03981722
:1018F00009F0A9C290919A0380913D03981709F0CD
:10190000A2C28091A00384FF5EC0609142037091E7
:1019100043036115710509F456C08EE393E00E94FC
:10192000E30740919B0380912903481709F04BC0BE
:1019300030919C0380912A03381709F044C020910C
:101940009D0380912B032817F1F590919E038091C0
:101950002C039817C1F540933E0330933F03209327
:1019600040039093410380914D03882309F5209112
:10197000480390914A0380914C03981B822F8695CF
:1019800086958695981B392F320F309348038091A6
:101990004903282F26952695821B97FD9195890F3F
:1019A00080934903369536953695830F80934A0385
:1019B00081E080932D0380914A0380934C03109221
:1019C00043031092420380914B03282F30E0C9015A
:1019D0008F7090708430910509F4DFC185309105D6
:1019E0005CF482309105B9F1833091050CF0C1C0EF
:1019F000019709F0C3C210C08630910509F419C2DD
:101A0000863091050CF4F3C18730910509F41BC2AF
:101A1000089709F0B3C2B5C180912D0380FFAEC213
:101A200083E080934B0380E480932D031092430363
:101A30001092420320912503309126032115310590
:101A400009F42CC180912D03826080932D03C9017C
:101A50000E94170923C180912D0380FF7FC08091D0
:101A6000A0038F73823109F079C080919F0390E0C9
:101A7000807F9070813591050CF44DC010928C02DE
:101A800038C0F901EF58FC4F86A980938D02882356
:101A900009F441C0813021F44F5F40938C0229C08A
:101AA0008230D9F487A98430C1F430AD20E081AD13
:101AB00090E0822B932B90938F0280938E02873F2E
:101AC000910510F086EF90E09093450380934403D6
:101AD00090934703809346031EC090918C02E92F98
:101AE000F0E0EF58FC4F87A98823A9F0890F809375
:101AF0008C0240918C02242F30E080919F038295CC
:101B00008F7090E00597880F991F880F991F2817ED
:101B100039070CF4B6CF83E080934B038091970391
:101B200080933A038091980380933B0380919903BB
:101B300080933C0380919A0380933D0381E090E081
:101B40000E94170982E480932D03109243031092A0
:101B500042031092260310922503A0C080E28093D6
:101B60002D030E94DB06E0913003F0913103118ECA
:101B70003DCD8091A00380FF33C024FD31C0809112
:101B8000420390914303892B09F0F8C1809125030A
:101B90009091260301960E94170980912D03806180
:101BA00080932D038091250390912603892B29F0A2
:101BB00080912D03826080932D030E94DB0681E0DB
:101BC00090E0909343038093420388E080934B031B
:101BD00010924D03C2E3D3E081E18093A00337C1AB
:101BE00085FF21C06091A503362F20E04091A60318
:101BF00050E0242B352B80912E0390912F03820FE0
:101C0000931F90932F0380932E03962F80E0842BB5
:101C1000952B2091250330912603281B390B3093F7
:101C200026032093250320912503309126032115B7
:101C3000310561F080914B0384FD08C080912D0334
:101C4000826080932D03C9010E9417099091A1031E
:101C500080E02091A203820F911D90938F028093C8
:101C60008E0220914603309147032817390710F060
:101C7000892B21F430938F0220938E0280918E0263
:101C800090918F02909345038093440380912D039C
:101C900090E083709070892B09F470C11092A004B9
:101CA00010929F040E94DB06C2E3D3E080912D03D3
:101CB00085FF07C01092A00410929F04198E84E142
:101CC0008CCF80912D0384FF0CC01092A004109241
:101CD0009F0481E090E0998B888B84E0898F1B8E34
:101CE0007BCF80919F049091A004892B11F180916A
:101CF0002D0380FF02C0198A188A88899989009764
:101D0000A1F42A893B8980919F049091A00428170F
:101D1000390720F43093A00420939F0480919F04FE
:101D20009091A004998B888B04C09093A004809319
:101D30009F041B8E809127039091280390932F037B
:101D400080932E0380919F049091A004892B59F0D9
:101D500088899989009739F0889690932603809313
:101D6000250388E10BC080912D0381FF07C188E224
:101D700090E0909326038093250380E18093A00355
:101D80006CC080912D0380FFF9C010924B0380E15D
:101D900080932D030E94DB06F1C080912503909172
:101DA0002603009711F00E9417098091A00380FF7D
:101DB00012C080912D0380FF0AC087E080934B03FF
:101DC00010924C03109243031092420321C086E00C
:101DD00080934B031DC080912D0380FF23C085E0BD
:101DE00080934B031092430310924203C7C080912B
:101DF000250390912603009711F00E941709809106
:101E0000A00380FF0FC087E080934B0310924C0328
:101E100081E090E00E94170980E180932D030E94E9
:101E2000DB0611C08091250390912603892B59F47C
:101E3000A5C080912D0380FFA1C087E080934B0354
:101E400010924C039BC080E189A3C2E3D3E088E2F7
:101E500090E0909326038093250380E580939F0371
:101E6000888580939B03898580939C038A858093D2
:101E70009D038B8580939E038C85809397038D852E
:101E8000809398038E85809399038F8580939A031E
:101E900086E0809388038C819D8190939403809346
:101EA00093038E819F8190939603809395038091F5
:101EB0006D0390916E0390938C0380938B038091BC
:101EC0006F039091700390938E0380938D038881AC
:101ED00099819093900380938F038A819B81909343
:101EE000920380939103898D84FF05C01092A20311
:101EF0001092A10305C01092A10386EF8093A20364
:101F000080E48093870380912603809381038091EE
:101F10002503809382031092A6031092A5031092CA
:101F2000A4031092A3030E945D088095909590935E
:101F3000A4038093A30385E480937F03109280031E
:101F400010928603109285038091840290918502FD
:101F500001969093850280938402909383038093EB
:101F6000840310928A03109289030E944C08809582
:101F7000909590938A038093890304C0109226035E
:101F80001092250310922D03DF91CF910895DF92D7
:101F9000EF92FF920F931F93CF93DF93DC01062FF5
:101FA000D72E1092EC0260E01BE02BC0619FF00185
:101FB0001124E057FD4F408151814115510501F138
:101FC0002281338121153105D9F08D919C91119792
:101FD00084179507A9F412968D919C9113978217F7
:101FE000930771F46093EC02EF012496802F9D2DEE
:101FF0009C01D90186E00D9009928150E1F767C0FC
:102000006F5F683098F21092EC0220E03BE011C064
:10201000239FF0011124E057FD4F80819181892B8E
:1020200039F482819381892B19F42093EC023CC00E
:102030002F5F283068F32093EC022830A9F5109226
:10204000EF021092ED021091EE02C12FD0E060E09D
:1020500070E040E08BE0E82EF12C18C0842F90E077
:102060008E9DF0018F9DF00D9E9DF00D1124E05787
:10207000FD4F52859E01251B3109872F90E0821765
:1020800093071CF4712F751B642F4F5F483030F39A
:102090006093ED027093EF026093EC028BE0689F17
:1020A000F0011124E057FD4F8D919D910D90BC9151
:1020B000A02DEF0189939993A993B993202F3D2DDA
:1020C000C901DC0186E00D9009928150E1F7809111
:1020D000EE028287DF91CF911F910F91FF90EF90D9
:1020E000DF90089580912503909126030E97909399
:1020F00026038093250380916D0390916E032091B8
:102100008B0330918C0382279327209169033091B0
:102110006A0382239323892BC1F480916F039091EA
:10212000700320918D0330918E0382279327209195
:102130006B0330916C0382239323892B31F48BE85A
:1021400093E067E773E00E94C70F0895CF93DF9392
:1021500080912503909126038A9728F410922603F4
:1021600010922503A6C01092260310922503C1E702
:10217000D3E0809185039091860321E0803092071F
:1021800029F08050924009F094C076C020919703C6
:102190003091980380916D0390916E032817390751
:1021A00009F087C02091990330919A0380916F03C1
:1021B000909170032817390709F07BC0CE014C9627
:1021C000BE016A5E7F4F0E94C70F80E092E090934D
:1021D000860380938503DE019096FE01769686E065
:1021E00001900D928150E1F7A7E8B3E0EEE7F2E04D
:1021F00086E001900D928150E1F7A7E7B3E0EEE7AA
:10220000F2E086E001900D928150E1F7E1E7F3E022
:10221000DF01909686E00D9001928150E1F7809168
:102220008D0390918E0390939803809397038091F0
:102230008F039091900390939A03809399038091D8
:102240006D0390916E0390938E0380938D03809124
:102250006F03909170039093900380938F0388E0B5
:1022600096E090937E0380937D038AE290E09093C2
:102270002603809325031DC0209197033091980376
:1022800080916D0390916E032817390791F4209186
:10229000990330919A0380916F03909170032817EE
:1022A000390739F4CE014C96BE016A5E7F4F0E9419
:1022B000C70FDF91CF91089540918F035091900304
:1022C00080916A0290916B024817590789F48091B6
:1022D0009103909192038F5F9F4F51F4A1E7B3E078
:1022E000EEE6F2E086E001900D928150E1F7CDC07C
:1022F00080916D0390916E03842795272091690347
:1023000030916A0382239323892B91F46091910386
:102310007091920380916F039091700386279727A5
:1023200020916B0330916C0382239323892B89F0D6
:1023300080916503909166039093E9028093E8028F
:1023400080916703909168039093EB028093EA0277
:1023500008C05093E9024093E8027093EB02609347
:10236000EA021092EC026091E8027091E902409159
:10237000EA025091EB0220E03BE013C0239FF00102
:102380001124E057FD4F808191816817790741F44E
:10239000828193814817590719F42093EC026DC08C
:1023A0002F5F283058F32093EC02283009F065C0E5
:1023B00081E793E06FEF70E046E050E00E94FE128C
:1023C000E1E9F3E086E0DF011D928A95E9F77A976B
:1023D000AEE7B2E086E00D9001928150E1F7A7E808
:1023E000B3E0EEE7F2E086E001900D928150E1F774
:1023F0008091E8029091E90290939803809397036B
:102400008091EA029091EB0290939A038093990352
:1024100080916D0390916E0390938E0380938D0352
:1024200080916F03909170039093900380938F033A
:1024300080E091E0909386038093850390938003DE
:1024400080937F0388E090E09093820380938103E0
:1024500086E08093830384E08093840388E096E0A1
:1024600090937E0380937D0387EA93E090932F03FC
:1024700080932E038AE290E01CC0A1E7B3E034967B
:1024800086E001900D928150E1F7A7E7B3E0EEE717
:10249000F2E086E001900D928150E1F788E090E053
:1024A00090937E0380937D03809125039091260372
:1024B0000E96909326038093250308958091EE0253
:1024C0008F5F8093EE021092EC024BE01FC0249FBE
:1024D000F0011124E057FD4F8281938120813181E9
:1024E000822B932B892B69F08091EE0290E022855C
:1024F000821B91098837910524F010821182128283
:1025000013828091EC028F5F8093EC022091EC02A9
:102510002830E8F208951092EC029BE00CC0899FED
:10252000F0011124E057FD4F1082118212821382B4
:102530008F5F8093EC028091EC02883080F30895E5
:10254000CF93DF93DC01EB01722F632F822F932F48
:102550009C01F90150E016C08081981771F4319602
:102560008081882371F411968C918D3331F4872FFB
:10257000962F9C01F90151E004C0872F962F9C01F2
:10258000F90111969C91992339F0903229F09A30F3
:1025900019F0552309F304C0513011F030E018C090
:1025A0006A2F50E04150504002C0299311963A2FB3
:1025B000361B2C91222359F0203249F02A3039F071
:1025C000263229F0832F90E08417950774F3188240
:1025D000832FDF91CF910895FB01DC0102C00590AC
:1025E0000D9241505040D8F70895FB01DC0102C024
:1025F00001900D9241505040D8F70895DC0101C080
:102600006D9341505040E0F708950F931F93CF937F
:10261000DF938C01E091A304F091A404838181FFF6
:1026200021C0C0E0D0E00DC0E091A304F091A4046B
:1026300020853185BF01F9010995892B11F0CFEF74
:10264000DFEFF80181918F01882371F7E091A304F6
:10265000F091A404208531858AE0BF01F901099534
:10266000892B11F0CFEFDFEFCE01DF91CF911F91DA
:082670000F910895F894FFCFCB
:102678000A0A2A2A2A2A2A2A2A2A2A2A2048455499
:102688004E455476302E31202A2A2A2A2A2A2A2AE6
:102698002A2A2A2A2A2A2A2A0A0053746172746961
:1026A8006E67207549502000436F6E6669677572C2
:1026B800696E6720636C6F636B2000436F6E666999
:1026C800677572696E67206C65642000436F6E667B
:1026D80069677572696E67206E6574776F726B20B3
:1026E80000436F6E6669677572696E672075495039
:1026F80020737461636B200053657420454854202F
:102708006D6163204164647265737300536574205E
:1027180045485420697020416464726573730043AE
:102728006F6E6669677572696E67204854545044C5
:10273800206461656D6F6E2000576169746564205F
:10274800666F72206E6577646174610048616E64BB
:102758006C6520436F6E6E656374696F6E004854D4
:1027680054502F312E3020323030204F4B0D0A007C
:10277800436F6E74656E742D547970653A20746574
:1027880078742F68746D6C0D0A000D0A0048656C2A
:102798006C6F20576F726C642C2046726F6D2061CD
:1027A8002073696D706C652068747470642E0049BC
:1027B8006E69742073696D706C652048747470203C
:1027C80041707000F302F3020000000200000000F4
:1027D800CA070000000000000000FFFFFFFFFFFF26
:0427E800FFFFFFFFF1
:00000001FF
