:100000000C9475000C9492000C9492000C94920045
:100010000C9492000C9492000C9492000C94920018
:100020000C9492000C9492000C9492000C94920008
:100030000C9492000C9492000C9492000C949200F8
:100040000C9494000C9492000C9492000C949200E6
:100050000C9492000C9492000C9492000C949200D8
:100060000C9492000C9492006607B209B209B2098E
:10007000B209B209B209B209B209B209B209B209A8
:10008000B209B209B209B209B209B209B209B20998
:10009000B209B209B209B209B2097507870799070F
:1000A000AB07BD07CF07E107F307050817082908C5
:1000B0003B084D085F089E09B209B2098108930800
:1000C000A508B209B209BE08B209F2089E09B20930
:1000D000B20918092A093C09B209B209B209B209E0
:1000E000B209B209B20986099E0911241FBECFEFD9
:1000F000D8E0DEBFCDBF14E0A0E0B1E0E0E8F0E37F
:1001000002C005900D92A03FB107D9F718E0A0EF0B
:10011000B4E001C01D92A931B107E1F70E940703C5
:100120000C943E180C9400001F920F920FB60F9281
:1001300011248F939F938091F0049091F104019684
:100140009093F1048093F004A89A9F918F910F905F
:100150000FBE0F901F901895EEE6F0E08081816051
:10016000808385B5856085BD78940895F8948091E5
:10017000F0049091F104789408952A98962F9F7135
:10018000982B9EBD0DB407FEFDCF1EBC0DB407FE1F
:10019000FDCF67FF04C01EBC0DB407FEFDCF8EB5BA
:1001A0002A9A08952A986F71682B6EBD0DB407FEC8
:1001B000FDCF4EBD0DB407FEFDCF2A9A08959C01D8
:1001C000FB012A988AE38EBD0DB407FEFDCF08C05F
:1001D0001EBC0DB407FEFDCF8EB58193215030407B
:1001E00021153105A9F72A9A08959C01FB012A9847
:1001F0008AE78EBD0DB407FEFDCF08C080818EBD9D
:100200000DB407FEFDCF3196215030402115310548
:10021000A9F72A9A08951F93CF93DF93182FC82F19
:10022000D0E0C076D07080917E0590E0C817D907E5
:1002300091F080EA6FE143E00E94D20085E0D5951D
:10024000C7958A95E1F780E86FE14C2F0E94D200B4
:10025000107610937E05DF91CF911F9108951F9323
:10026000182F0E940B0180E0612F0E94BD001F919A
:1002700008950F931F93182F062F0E940B0180E4FF
:10028000612F402F0E94D2001F910F9108950F936C
:100290001F93682F84ED0E94390182ED61E00E9476
:1002A00039018AEE0E942F0180FDFBCF82ED60E0D4
:1002B0000E94390188ED0E942F01082F10E089ED7E
:1002C0000E942F01282F30E0202B312BC9011F91D4
:1002D0000F9108950F931F93982F162F072F84EDDA
:1002E000692F0E94390186ED612F0E94390187ED47
:1002F000602F0E9439018AEE0E942F0180FDFBCF02
:100300001F910F910895CF92DF92EF92FF920F937A
:100310001F93CF93DF938C017B01EA01690180E891
:100320006FE140E80E94D20080EA6FE140E80E945D
:10033000D20082E060E00E94390183E060E00E9428
:100340003901CE01800F682F86E00E9439019E019D
:10035000200F311F87E0632F0E9439018AE760E098
:1003600040E00E94D200C801B7010E94F50020972A
:1003700021F0CE01B6010E94F50080E86FE148E06F
:100380000E94D200DF91CF911F910F91FF90EF90CB
:10039000DF90CF900895EF92FF920F931F93CF932A
:1003A000DF93EC017B0189E30E942F01882319F47C
:1003B00000E010E04DC080E060917C050E943901B2
:1003C00060917D0581E00E9439018AE360E00E942E
:1003D000BD00082F10E010937D0500937C058AE393
:1003E00060E00E94BD00382F20E0202B312B30939D
:1003F0007D0520937C058AE360E00E94BD00082F04
:1004000010E08AE360E00E94BD00382F20E0022B5C
:10041000132B8AE360E00E94BD008AE360E00E9443
:10042000BD00C017D10708F48E01C801B7010E94B2
:10043000DF008CE060917C050E94390160917D05B0
:100440008DE00E94390180E86EE140E40E94D20014
:10045000C801DF91CF911F910F91FF90EF90089508
:100460000895229A2A9A2D9A259A2498239A229AB4
:100470008CB580618CBD8CB5877F8CBD8CB58F7D34
:100480008CBD8CB58E7F8CBD8CB58D7F8CBD8DB5B4
:1004900081608DBD8CB580648CBD8FEF60E04FEFC7
:1004A0000E94D20085E88A95F1F700008DE10E9454
:1004B0002F0180FFFBCF80E096E090937D05809335
:1004C0007C0588E060E00E94390189E066E00E94D6
:1004D00039018CE060E00E9439018DE066E00E9405
:1004E00039018AE06FEF0E9439018BE06FE10E94D1
:1004F000390184E060E00E94390185E060E00E94FB
:10050000390180EC6DE00E94390181EC60E00E94CD
:10051000390180E862EC42E30E94D20086EC62E19D
:100520000E94390187EC6CE00E94390184EC62E1A1
:100530000E9439018AEC6EEE0E9439018BEC65E075
:100540000E94390184EE60E00E94390185EE6DEB76
:100550000E94390182EE6BE30E94390183EE63E36E
:100560000E94390180EE65E00E94390181EE61E769
:100570000E94390180E160E071E00E946A018FE130
:100580000E940B0180E86BE140EC0E94D20080E801
:100590006FE144E00E94D20008958091F2049091AE
:1005A000F3048033910591F08533910511F1892B86
:1005B00031F5409A84EF94E06FE070E00E94F0091A
:1005C00080E390E09093F3048093F20484EF94E04E
:1005D0000E94CE09892BC9F0409884EF94E06FE027
:1005E00070E00E94F00985E390E09093F30480931B
:1005F000F20484EF94E00E94CE09892B31F010922E
:10060000F3041092F20482E0089580E00895CF93FD
:10061000DF930E94AC0087E690E00E94FE090E94F2
:100620003B0A80E091E00E9431158AE291E00E944D
:10063000311588E391E00E943115389A8BE491E0FE
:100640000E9431151092F3041092F2041092F904F2
:100650001092F8040E94CD02C2E4D0E00E94CD02C4
:100660008091F8049091F904009721F0823491056B
:10067000A9F40AC08AEF94E06EE370E00E94F009EA
:10068000D093F904C093F8048AEF94E00E94CE0955
:10069000892B21F38CE591E00E9431151092F90429
:1006A0001092F804DBCFCF92DF92EF92FF920F937C
:1006B0001F938C016C010894C11CD11C84EEF801BD
:1006C00060810E94390176010894E11CF11C85EEDD
:1006D000F80161810E94390187010F5F1F4F82EE8F
:1006E000F60161810E94390183EEF70161810E9468
:1006F000390180EEF80161810E94390181EE0F5FBE
:100700001F4FF80161810E9439011F910F91FF90E5
:10071000EF90DF90CF900895EF92FF920F931F9389
:100720007C0184EE0E942F01F70181938F0185EEF9
:100730000E942F01F701818378010894E11CF11CCC
:1007400082EE0E942F01F801818387010F5F1F4F06
:1007500083EE0E942F01F701818380EE0E942F011A
:10076000F801818381EE0E942F010F5F1F4FF80176
:1007700081831F910F91FF90EF9008950E943102A5
:1007800084E166E774E00E946A0108954091B5052E
:100790005091B6054733510540F4CA0163EE76E047
:1007A00040E050E020E030E00AC046535040209145
:1007B000BE053091BF0586E390E063EE76E00E94CF
:1007C000830108958CE291E063EE76E00E94CB0114
:1007D0000895FC018489863049F58091BD0580FF2C
:1007E00025C082859385A091C005B091C105529620
:1007F0004D915C915397248135814817590768F4CE
:10080000841B950B9387828752968D919C91539769
:10081000280F391F3583248306C0280F391F3583DD
:1008200024831386128681E0848B089580E00895E6
:10083000FC012289338980899189281B390BC901E0
:100840000895FC0184859585892B11F081E0089538
:100850008489823021F483E0848B80E00895809144
:10086000BD0590E096958795817008951F93CF936D
:10087000DF93EC01162F8A819B81009729F08B5121
:10088000914009F073C010C02A893B8988859985F9
:100890009F878E87398B288B8C859D85892BB9F511
:1008A0008BE191E09B838A83CE010E9421048823FF
:1008B00009F45FC082E08C8B8091BE059091BF05EA
:1008C0009F838E838091B5059091B6059D878C8717
:1008D0001EC0EE81FF812081EE85FF8520838E8101
:1008E0009F8101969F838E838E859F8501969F872A
:1008F0008E878C859D8501979D878C8788899989AE
:100900000197998B888B211711F482E021C0888987
:100910009989892B21F08C859D85892BD1F68C8531
:100920009D85892B79F480E013C0EE81FF81819150
:10093000215030403D872C87FF83EE83811711F4CF
:1009400083E006C02C853D852115310571F781E0D6
:1009500081FFA2CF2A893B8988899989281739077D
:1009600029F41C8A1B821A8280E003C01B821A822F
:1009700082E0DF91CF911F910895FC01148A1586C2
:10098000148660877187538B428B66877787518B7C
:10099000408B11821082138212820895CF93DF93CD
:1009A000EC018C89863031F48091BD0582FD02C056
:1009B00080E013C02A853B85E091C005F091C10518
:1009C000628973898C819D816217730708F0B90170
:1009D0000E94970B86E08C8B81E0DF91CF91089588
:1009E0001F93CF93DF93EC018A819B81009721F0C5
:1009F0008158914011F511C04115510521F41B8218
:100A00001A8281E01DC07D836C835B874A871C8AC4
:100A10000FC081E891E09B838A83CE010E94E903A5
:100A2000182FCE010E94CE04182311F480E008C0D4
:100A30008A859B85892B69F71C8A1B821A8282E032
:100A4000DF91CF911F910895CF93DF93EC018A81BD
:100A50009B81009729F08653914009F08AC010C00D
:100A60002A893B89888599859F878E87398B288B32
:100A70008C859D85892BE1F486E391E09B838A83B5
:100A8000CE010E942104882309F476C08EE691E00D
:100A90000E94311582E08C8B8091BE059091BF053C
:100AA0009F838E838091B5059091B6059D878C8735
:100AB000EC85FD8528893989E217F307F0F46E810A
:100AC0007F818E859F85AF010E940C158E859F8545
:100AD0002C853D85820F931F9F878E8788899989F2
:100AE000821B930B998B888B8E819F81820F931F22
:100AF0009F838E831D861C86BBCF8E859F856E81CE
:100B00007F81E217F307B1F4AF010E940C158E85C7
:100B10009F852C853D85820F931F9F878E87198A1D
:100B2000188A8E819F81820F931F9F838E831D86DB
:100B30001C8625C0A9010E940C158E859F852889D9
:100B40003989820F931F9F878E878C859D85821B95
:100B5000930B9D878C878E819F81820F931F9F832C
:100B60008E83198A188A0BC01C8A1B821A8280E025
:100B700003C01B821A8282E0DF91CF9108952A89F7
:100B80003B89888999892817390799F7EDCFCF9341
:100B9000DF93EC018C89863031F48091BD0582FDB4
:100BA00002C080E013C02A853B85E091C005F0912A
:100BB000C105628973898C819D816217730708F072
:100BC000B9010E94AC0B86E08C8B81E0DF91CF9164
:100BD0000895CF92DF92EF92FF921F93CF93DF930E
:100BE000EC017B016A018A819B81009721F08E3E96
:100BF000910579F51EC06115710521F41B821A82D9
:100C000081E02AC0CA01FB0109959B878A878091F0
:100C1000BE059091BF059D838C831C8A8091BD0584
:100C200082FF03C0C601F70109958EEE90E09B8319
:100C30008A83CE010E94E903182FCE010E94C705C6
:100C4000182311F480E008C08A859B85892B31F731
:100C50001C8A1B821A8282E0DF91CF911F91FF9044
:100C6000EF90DF90CF9008951F93CF93DF93EC0127
:100C70008A819B81009721F08F3C910511F511C06D
:100C80004115510521F41B821A8281E01DC07D832C
:100C90006C835B874A871C8A0FC08FEC90E09B8334
:100CA0008A83CE010E94E903182FCE010E94C70556
:100CB000182311F480E008C08A859B85892B69F789
:100CC0001C8A1B821A8282E0DF91CF911F910895C6
:100CD0000F931F93CF93DF93C091C005D091C105AF
:100CE0008091BD0584FD46C38091BD0585FD42C34D
:100CF0008091BD0587FD3EC38091BD058E01045ED8
:100D00001F4F86FF1FC081E891E00E943115CE0180
:100D100087519F4FB80144E650E00E94BD04CE01C8
:100D200082509F4FC058DF4FBE0144E650E00E9402
:100D3000BD04CB59DF4F199219921982188223975B
:100D4000188218C3012B09F412C38091BD0580914C
:100D5000BD0585FD1AC08091BD0587FD16C0809137
:100D6000BD0584FD12C08091BD0582FD0EC080913D
:100D7000BD0581FD0AC08091BD0580FD06C0809142
:100D8000BD0586FD02C08091BD05FE01E751FF4F04
:100D9000808191818635910561F18735910538F41F
:100DA000009751F08F34910509F070C009C0823767
:100DB000910509F06BC061C08FE490E0918380835E
:100DC0008E0107511F4FC80160E20E94360488233C
:100DD00009F462C0CE014C966AEC74E044E050E045
:100DE0000E942315009791F486E590E0F801918325
:100DF00080838E0107511F4FC80160E20E943604B4
:100E0000882309F449C08C8D8F3239F080E18093BA
:100E1000BD05D8011D921C923FC08E01045E1F4F7C
:100E2000F80181918F018D33D9F7CF016BE871E023
:100E300044E050E00E942315009739F4CC51DF4F75
:100E400084E08883C45ED04010C0C80160E971E0CE
:100E500044E050E00E942315FE01EC51FF4F009743
:100E600011F485E001C086E08083C751DF4F82E73F
:100E700090E099838883C95ED040CE0187519F4F0F
:100E80006AE00E943604882339F0EFCFC751DF4F64
:100E900019821882C95ED040CC51DF4F8881C45E70
:100EA000D040833008F466C2C250DF4FE881F98138
:100EB000CE5FD040E134F10508F054C2EC5CFF4F46
:100EC000EE0FFF1F0590F491E02D0994863009F094
:100ED00009C185E991E00E943115C250DF4F89E1D7
:100EE00090E099838883CE5FD0408E0102501F4FDF
:100EF000C80162EA71E041E150E00E9434068823B3
:100F000009F438C28AE190E0D8018D939C938E0158
:100F100002501F4FC80164EB71E049E150E00E94AC
:100F20003406882309F426C28BE190E0F80191830E
:100F300080838E0102501F4FC8016EEC71E042E0C9
:100F400050E00E943406882309F414C28CE190E03A
:100F5000D8018D939C938E0102501F4FC80161ED03
:100F600071E045E450E00E943406882309F402C28F
:100F70008DE190E0F801918380838E0102501F4F34
:100F8000C80167E172E041E250E00E943406882324
:100F900009F4F0C18EE190E0D8018D939C938E010D
:100FA00002501F4FC80169E372E042E150E00E9425
:100FB0003406882309F4DEC18FE190E0F8019183C3
:100FC00080838E0102501F4FC8016CE472E04EE135
:100FD00050E00E943406882309F4CCC180E290E0FE
:100FE000D8018D939C938E0102501F4FC8016BE670
:100FF00072E049E750E00E943406882309F4BAC140
:1010000081E290E0F801918380838E0102501F4FAE
:10101000C80165EE72E046E150E00E943406882384
:1010200009F4A8C182E290E0D8018D939C938E01CF
:1010300002501F4FC8016CEF72E044E350E00E9481
:101040003406882309F496C183E290E0F801918385
:1010500080838E0102501F4FC80161E373E049E9AC
:1010600050E00E943406882309F484C184E290E0B1
:10107000D8018D939C938E0102501F4FC8016BECD9
:1010800073E049E250E00E943406882309F472C1FB
:1010900085E290E0F801918380838E0102501F4F1A
:1010A000C80165EF73E04DE450E00E9434068823E8
:1010B00009F460C186E290E0D8018D939C938E0183
:1010C00002501F4FC80163E474E047E250E00E9401
:1010D0003406882309F44EC187E290E0F801918339
:1010E00080832CC1843009F094C08CE794E00E9486
:1010F0003115C250DF4F8AE290E099838883CE5F3A
:10110000D0408E0102501F4FC80162EA71E041E1F8
:1011100050E00E943406882309F42CC18BE290E051
:10112000D8018D939C938E0102501F4FC80164EB30
:1011300071E049E150E00E943406882309F41AC1A5
:101140008CE290E0F801918380838E0102501F4F62
:10115000C8016EEC71E042E050E00E943406882342
:1011600009F408C18AE0EEEFF4E0DF011D928A95F0
:10117000E9F78FE290E0F801918380838E010250BD
:101180001F4FC80169E874E04AE250E00E9434064B
:10119000882309F4EFC000D000D000D0EDB7FEB72F
:1011A00031968EEF94E0ADB7BEB712969C938E93B6
:1011B000119784EB94E093838283809181059091D1
:1011C0008205958384830E94661581E390E0F8018F
:1011D000918380838DB79EB706960FB6F8949EBF15
:1011E0000FBE8DBFAEEFB4E0FD0101900020E9F726
:1011F0003197EA1BFB0B8E0102501F4FC801BD0146
:10120000AF010E943406882309F4B4C082E390E061
:1012100092C0853009F09DC089EB94E00E943115A1
:10122000C250DF4F85E390E099838883CE5FD04042
:101230008E0102501F4FC80162EA71E041E150E0A7
:101240000E943406882309F495C086E390E0F801F3
:10125000918380838E0102501F4FC80164EB71E0BF
:1012600049E150E00E943406882309F483C087E3F3
:1012700090E0D8018D939C93CE0182509F4F6EECED
:1012800071E042E050E00E943406882309F472C005
:10129000AEEFB4E08AE0FD0111928A95E9F7209162
:1012A000810530918205C9014597833B910508F579
:1012B00000D000D000D04DB75EB74F5F5F4FEDB7A5
:1012C000FEB7B283A18384EB94E0DA0113969C937A
:1012D0008E93129715963C932E9314970E94661541
:1012E000EDB7FEB736960FB6F894FEBF0FBEEDBF52
:1012F00005C0CD0166EC74E00E941C15C250DF4FA2
:101300008FE390E099838883CE5FD040AEEFB4E066
:10131000FD0101900020E9F73197EA1BFB0B8E01DC
:1013200002501F4FC801BD01AF010E94340688233F
:1013300009F180E490E0D8018D939C93CE01825016
:101340009F4F6BE674E040E150E00E943406882332
:1013500089F080E18093BD05CC51DF4F81E0888327
:10136000C45ED040C250DF4F1982188203C080E2B1
:101370008093BD05DF91CF911F910F91089580E07B
:1013800090E50E94680B0895FC0180819181228183
:101390003381820F931F9183808308950F931F934E
:1013A0008C010E94B60040E050E0F80120813181BC
:1013B000821B930B228133818217930710F041E047
:1013C00050E0CA011F910F9108950F931F938C0154
:1013D0000E94B600F801918380831F910F910895B8
:1013E0000F931F938C01FC01738362830E94B600EC
:1013F000F801918380831F910F9108959093C50008
:101400008093C400E1ECF0E0808188618083E0ECAF
:10141000F0E0808182608083E2ECF0E08081866091
:1014200080830895982F8A3009F49DE08091C00050
:1014300085FFFCCF9093C6000895FC010BC0982F48
:101440008A3009F49DE08091C00085FFFCCF319681
:101450009093C6008081882391F70895982F8A3051
:1014600009F49DE08091C00085FFFCCF9093C600F9
:1014700080E090E0089583ED94E0909316088093C7
:101480001508089590931105809310050895FC01A7
:101490005381560F5093BC05272F33274281420FAB
:1014A0004093BB05A181A093BA05E081E093B90503
:1014B000842F90E08217930748F48A2F8F5F8093E0
:1014C000BA05882319F4EF5FE093B905852F90E002
:1014D00070708617970790F4842F8F5F8093BB05F9
:1014E000882361F48091BA058F5F8093BA058823C1
:1014F00029F48091B9058F5F8093B90508959C0107
:1015000041505040460F571FFB010EC0708160E0F4
:101510008181DB01A80FB11D2A0F3B1F2A173B0752
:1015200010F42F5F3F4F3296E417F50778F3E41776
:10153000F50749F4908180E0280F391F28173907F3
:1015400010F42F5F3F4FC90108959C01AB0180E06B
:1015500090E0B9010E947F0A282F892F922F0895C9
:1015600080E090E061EF76E044E150E00E947F0A85
:10157000009719F42FEF3FEF02C0382F292FC90130
:1015800008950F931F930091F40610E0045110404A
:101590009091F30680E0080F191FC80106966DEFC1
:1015A00076E048E050E00E947F0A65E077E0A8011D
:1015B0000E947F0A009719F42FEF3FEF02C0382FE7
:1015C000292FC9011F910F9108951092D6061092EC
:1015D000D5061092DB0581E08093180580E094E049
:1015E00090931705809316050895DC014091DB0563
:1015F000E091C605F091C7052091160530911705B9
:101600002F5F3F4F5DE72030350710F020E030E1DD
:10161000922F832F442319F0E817F90789F32093B9
:10162000160530931705E0E0F0E0442329F410920A
:101630001805E2ECF5E009C0473011F4E2ECF5E002
:1016400081E080931805309779F182E0818F809155
:1016500012058487809113058587809114058687FC
:1016600080911505878786EF90E0938B828B958B11
:10167000848B81E090E0918B808B138E81E0828F50
:1016800083E0808F168A80E1878B3483258377837C
:1016900066838D919C9111979183808312968D9191
:1016A0009C91139793838283CF0108952091D5064F
:1016B0003091D6062817390739F410921805109280
:1016C000D6061092D506089581E0809318050895F6
:1016D0009C018091D5069091D606892B39F4109201
:1016E00018053093D6062093D506089581E080939F
:1016F00018050895BC018091C0059091C105089618
:101700000E94470AE091C005F091C1058091B9059A
:1017100080878091BA0581878091BB0582878091FF
:10172000BC0583870895282F892F922F0895AC0137
:101730009B01161617067CF460931108309312086B
:101740008091B7059091B8054817590721F0BA0163
:10175000A9010E9403150895AC01FB0160931108D3
:10176000F09312081616170664F42091B70530910D
:10177000B8058217930729F0C901BA01AF010E9489
:101780000C150895CF93DF93C091C005D091C1058A
:1017900029E137E03093BF052093BE053093B805AB
:1017A0002093B705833059F4898D8F70833009F009
:1017B00048C688899989892B09F043C689C0823037
:1017C00009F08CC0809115058F5F809315058823E3
:1017D00099F4809114058F5F80931405882361F438
:1017E000809113058F5F80931305882329F48091DE
:1017F00012058F5F809312051092B6051092B50501
:101800001092120810921108298D273011F02530FE
:1018100041F48A8D8F5F8A8F883709F012C6198E3E
:1018200010C6222309F40DC688899989892B09F4E9
:101830004BC08A8D81508A8F8F5F09F002C63B8D25
:10184000383029F02150223048F4353039F4198EDF
:1018500080E88093BD050E94680694C4353010F07E
:1018600080E307C083E090E002C0880F991F3A959B
:10187000E2F78A8F8B8D8F5F8B8F898D90E08F70D1
:10188000907083309105D1F08430910544F481301B
:10189000910509F42DC2029709F0D3C50CC086301A
:1018A000910509F4FCC38830910509F4F8C3049745
:1018B00009F0C7C5F4C3109212071DC284E08093DB
:1018C000BD050E94680699C42F70233009F0B9C580
:1018D00088E08093BD050E9468064BC4E901A89783
:1018E0008091F106853409F0ACC59091F30680E053
:1018F0002091F406AC01420F511D8091B5059091E5
:10190000B6058417950708F49CC55093B605409317
:10191000B5058091F70690E08F739070892B09F0E0
:1019200090C58091F806882309F08BC52091DF06C9
:101930003091E0068091E1049091E2042817390784
:1019400031F48091E1069091E206892BA1F080911B
:101950000107909102078217930709F072C5209141
:101960000307309104078091E1069091E206281761
:10197000390709F066C50E94B00A8F5F9F4F09F0D2
:1019800060C58091FA068630D1F1813009F059C5E1
:1019900080910507883009F054C5109205078091A1
:1019A0000707909108072FEF873F920710F00996DD
:1019B00001C0089690930807809307078091FD0661
:1019C0009091FE0690930207809301078091FF0695
:1019D0009091000790930407809303078091DF069E
:1019E0009091E0069093FE068093FD068091E106BB
:1019F0009091E206909300078093FF0626C50E940F
:101A0000C10A8F5F9F4F09F01CC54091DB0544233D
:101A100069F120910707309108078091C6059091E0
:101A2000C7052817390711F52091050730910607DA
:101A30008091C8059091C90528173907B9F42091FC
:101A4000FD063091FE068091C2059091C3052817CE
:101A5000390761F42091FF06309100078091C40599
:101A60009091C5052817390709F45DC180911207C7
:101A70008F738230F1F4809107079091080790935B
:101A80001B0580931A051092180541E00EC02091A5
:101A90001A0530911B058091D5069091D60628171E
:101AA000390709F46EC04093180580911805882302
:101AB00071F38091120782FDC4C484E189A388E296
:101AC00090E09093B6058093B50580E588A390914A
:101AD0000C07809110078B8F30910B0780910F07B7
:101AE0008A8F3E8F40910A0780910E07898F4D8F14
:101AF000209109072093180580910D07888F2C8F5E
:101B00009F5F9F8F992361F4832F8F5F8E8F882330
:101B100039F4842F8F5F8D8F882311F42F5F2C8FE2
:101B2000209105073091060730931B0520931A0575
:101B300080910707909108079D8B8C8B3F8B2E8B94
:101B40008091FD069091FE06909302078093010715
:101B50008091FF06909100079093040780930307FC
:101B60008091DF069091E0069093FE068093FD063B
:101B70008091E1069091E206909300078093FF0622
:101B800022C410921805C0E0D0E021E014C080917A
:101B9000DB05882319F4C2ECD5E014C0873049F482
:101BA000209729F09091DC058A8D891710F4C2ECFA
:101BB000D5E02093180580911805882341F32097DC
:101BC00009F43FC4D093C105C093C00583E08A8F58
:101BD000888F1E8A84E08F8B1B8E809107079091DF
:101BE00008079D838C8380910507909106079F834A
:101BF0008E838091FD069091FE0699838883809163
:101C0000FF06909100079B838A8381E0898F8091F2
:101C100012058C87809113058D87809114058E871E
:101C2000809115058F8781E090E0998B888B80915A
:101C30000C078B8780910B078A8780910A07898719
:101C400080910907888781E090E00E947A0B80915B
:101C5000110790E0807F9070813591050CF448C0A9
:101C60001092180533C0F901ED51F94F86A9809300
:101C700019058823E9F1813021F44F5F409318055D
:101C800025C08230B9F487A98430A1F430AD20E0BA
:101C900081AD90E0822B932B90931B0580931A05C6
:101CA000873F910510F086EF90E09B8B8A8B9D8B90
:101CB0008C8B1EC090911805E92FF0E0ED51F94F83
:101CC00087A98823A9F0890F8093180540911805EA
:101CD000242F30E08091110782958F7090E0059756
:101CE000880F991F880F991F281739070CF4BBCF4D
:101CF00080E180931207809112078260809312071F
:101D000082E08093190784E080931A0710921B07E2
:101D100086EF80931C078CE290E09093B605809349
:101D2000B50580E6FEC282EC95E09093C1058093F4
:101D3000C0051092BD058091120782FF04C0109269
:101D4000DB0580E288C28091110782958F70880F31
:101D5000880F809318052091B5053091B605245160
:101D60003040281B31093093B6052093B5054F70DC
:101D7000423029F4809112078F73823129F1232B8D
:101D800039F48091120790E083709070892BE1F014
:101D9000909109078091CA05981709F0B7C29091F0
:101DA0000A078091CB05981709F0B0C290910B07F4
:101DB0008091CC05981709F0A9C290910C078091E9
:101DC000CD05981709F0A2C28091120784FF5EC06A
:101DD0006091D2057091D3056115710509F456C063
:101DE0008EEC95E00E94470A40910D078091B9055D
:101DF000481709F04BC030910E078091BA0538178B
:101E000009F044C020910F078091BB052817F1F518
:101E1000909110078091BC059817C1F54093CE05AD
:101E20003093CF052093D0059093D1058091DD05A7
:101E3000882309F52091D8059091DA058091DC0579
:101E4000981B822F869586958695981B392F320F81
:101E50003093D8058091D905282F26952695821B89
:101E600097FD9195890F8093D905369536953695CE
:101E7000830F8093DA0581E08093BD058091DA05B8
:101E80008093DC051092D3051092D2058091DB057A
:101E9000282F30E0C9018F7090708430910509F4CB
:101EA000DFC1853091055CF482309105B9F1833052
:101EB00091050CF0C1C0019709F0C3C210C0863073
:101EC000910509F419C2863091050CF4F3C18730ED
:101ED000910509F41BC2089709F0B3C2B5C18091FE
:101EE000BD0580FFAEC283E08093DB0580E4809374
:101EF000BD051092D3051092D2052091B505309101
:101F0000B6052115310509F42CC18091BD0582600B
:101F10008093BD05C9010E947A0B23C18091BD0544
:101F200080FF7FC0809112078F73823109F079C0E2
:101F30008091110790E0807F9070813591050CF4BD
:101F40004DC01092180538C0F901ED51F94F86A91E
:101F500080931905882309F441C0813021F44F5F33
:101F60004093180529C08230D9F487A98430C1F480
:101F700030AD20E081AD90E0822B932B90931B0538
:101F800080931A05873F910510F086EF90E09093BB
:101F9000D5058093D4059093D7058093D6051EC0B0
:101FA00090911805E92FF0E0ED51F94F87A98823AA
:101FB000A9F0890F8093180540911805242F30E06F
:101FC0008091110782958F7090E00597880F991F77
:101FD000880F991F281739070CF4B6CF83E0809338
:101FE000DB05809109078093CA0580910A078093D9
:101FF000CB0580910B078093CC0580910C078093D3
:10200000CD0581E090E00E947A0B82E48093BD05CB
:102010001092D3051092D2051092B6051092B50514
:10202000A0C080E28093BD050E946806E091C005D3
:10203000F091C105118E3DCD8091120780FF33C014
:1020400024FD31C08091D2059091D305892B09F0F0
:10205000F8C18091B5059091B60501960E947A0B62
:102060008091BD0580618093BD058091B5059091FB
:10207000B605892B29F08091BD0582608093BD054E
:102080000E94680681E090E09093D3058093D2058A
:1020900088E08093DB051092DD05C2ECD5E081E19C
:1020A0008093120737C185FF21C060911707362F33
:1020B00020E04091180750E0242B352B8091BE057D
:1020C0009091BF05820F931F9093BF058093BE052B
:1020D000962F80E0842B952B2091B5053091B60585
:1020E000281B390B3093B6052093B5052091B50513
:1020F0003091B6052115310561F08091DB0584FD35
:1021000008C08091BD0582608093BD05C9010E9411
:102110007A0B9091130780E020911407820F911D94
:1021200090931B0580931A052091D6053091D70511
:102130002817390710F0892B21F430931B052093C1
:102140001A0580911A0590911B059093D5058093EF
:10215000D4058091BD0590E083709070892B09F4BF
:1021600070C110921208109211080E946806C2EC09
:10217000D5E08091BD0585FF07C01092120810922E
:102180001108198E84E18CCF8091BD0584FF0CC0AD
:10219000109212081092110881E090E0998B888BC0
:1021A00084E0898F1B8E7BCF80911108909112085B
:1021B000892B11F18091BD0580FF02C0198A188A10
:1021C000888999890097A1F42A893B89809111080F
:1021D000909112082817390720F4309312082093A1
:1021E00011088091110890911208998B888B04C076
:1021F00090931208809311081B8E8091B7059091DF
:10220000B8059093BF058093BE0580911108909109
:102210001208892B59F088899989009739F0889696
:102220009093B6058093B50588E10BC08091BD05FC
:1022300081FF07C188E290E09093B6058093B505D1
:1022400080E1809312076CC08091BD0580FFF9C0CA
:102250001092DB0580E18093BD050E946806F1C005
:102260008091B5059091B605009711F00E947A0B08
:102270008091120780FF12C08091BD0580FF0AC0C7
:1022800087E08093DB051092DC051092D305109255
:10229000D20521C086E08093DB051DC08091BD057D
:1022A00080FF23C085E08093DB051092D305109258
:1022B000D205C7C08091B5059091B605009711F081
:1022C0000E947A0B8091120780FF0FC087E08093F5
:1022D000DB051092DC0581E090E00E947A0B80E142
:1022E0008093BD050E94680611C08091B50590914C
:1022F000B605892B59F4A5C08091BD0580FFA1C00A
:1023000087E08093DB051092DC059BC080E189A308
:10231000C2ECD5E088E290E09093B6058093B505D5
:1023200080E580931107888580930D0789858093C8
:102330000E078A8580930F078B85809310078C8505
:10234000809309078D8580930A078E8580930B07FC
:102350008F8580930C0786E08093FA068C819D819F
:1023600090930607809305078E819F8190930807BD
:10237000809307078091DF069091E0069093FE0618
:102380008093FD068091E1069091E206909300070C
:102390008093FF06888199819093020780930107BB
:1023A0008A819B819093040780930307898D84FF22
:1023B00005C0109214071092130705C0109213075E
:1023C00086EF8093140780E48093F9068091B60528
:1023D0008093F3068091B5058093F4061092180758
:1023E0001092170710921607109215070E94C10A43
:1023F00080959095909316078093150785E48093B8
:10240000F1061092F2061092F8061092F7068091EB
:102410001005909111050196909311058093100578
:102420009093F5068093F6061092FC061092FB0638
:102430000E94B00A809590959093FC068093FB06CD
:1024400004C01092B6051092B5051092BD05DF913B
:10245000CF910895DF92EF92FF920F931F93CF9346
:10246000DF93DC01062FD72E1092780560E01BE089
:102470002BC0619FF0011124E45EFA4F408151812D
:102480004115510501F12281338121153105D9F022
:102490008D919C91119784179507A9F412968D91AF
:1024A0009C9113978217930771F460937805EF015D
:1024B0002496802F9D2D9C01D90186E00D900992D4
:1024C0008150E1F767C06F5F683098F2109278052D
:1024D00020E03BE011C0239FF0011124E45EFA4F9D
:1024E00080819181892B39F482819381892B19F420
:1024F000209378053CC02F5F283068F3209378053F
:102500002830A9F510927B051092790510917A0573
:10251000C12FD0E060E070E040E08BE0E82EF12CCD
:1025200018C0842F90E08E9DF0018F9DF00D9E9D30
:10253000F00D1124E45EFA4F52859E01251B3109EE
:10254000872F90E0821793071CF4712F751B642F5F
:102550004F5F483030F36093790570937B0560934B
:1025600078058BE0689FF0011124E45EFA4F8D91AD
:102570009D910D90BC91A02DEF0189939993A99302
:10258000B993202F3D2DC901DC0186E00D90099201
:102590008150E1F780917A058287DF91CF911F9179
:1025A0000F91FF90EF90DF9008958091B505909185
:1025B000B6050E979093B6058093B5058091DF061A
:1025C0009091E0062091FD063091FE068227932728
:1025D0002091DB063091DC0682239323892BC1F402
:1025E0008091E1069091E2062091FF06309100076C
:1025F000822793272091DD063091DE0682239323E4
:10260000892B31F48DEF96E069EE76E00E942A1274
:102610000895CF93DF938091B5059091B6058A9781
:1026200028F41092B6051092B505A6C01092B60512
:102630001092B505C3EED6E08091F7069091F806AA
:1026400021E08030920729F08050924009F094C038
:1026500076C02091090730910A078091DF0690919A
:10266000E0062817390709F087C020910B07309141
:102670000C078091E1069091E2062817390709F0CE
:102680007BC0CE014C96BE016A5E7F4F0E942A122B
:1026900080E092E09093F8068093F706DE01909632
:1026A000FE01769686E001900D928150E1F7A9EF48
:1026B000B6E0EAE0F5E086E001900D928150E1F7A6
:1026C000A9EEB6E0EAE0F5E086E001900D928150D7
:1026D000E1F7E3EEF6E0DF01909686E00D900192DF
:1026E0008150E1F78091FF069091000790930A07CF
:1026F00080930907809101079091020790930C073E
:1027000080930B078091DF069091E006909300077D
:102710008093FF068091E1069091E2069093020774
:102720008093010788E096E09093F0068093EF068F
:102730008AE290E09093B6058093B5051DC0209184
:10274000090730910A078091DF069091E00628176B
:10275000390791F420910B0730910C078091E10625
:102760009091E2062817390739F4CE014C96BE0144
:102770006A5E7F4F0E942A12DF91CF9108954091A7
:102780000107509102078091E5049091E6044817F3
:10279000590789F480910307909104078F5F9F4F39
:1027A00051F4A3EEB6E0E9EEF4E086E001900D927C
:1027B0008150E1F7CDC08091DF069091E00684273B
:1027C00095272091DB063091DC0682239323892B09
:1027D00091F460910307709104078091E106909154
:1027E000E206862797272091DD063091DE068223B8
:1027F0009323892B89F08091D7069091D8069093E6
:102800007505809374058091D9069091DA069093AE
:1028100077058093760508C050937505409374053D
:102820007093770560937605109278056091740532
:1028300070917505409176055091770520E03BE059
:1028400013C0239FF0011124E45EFA4F808191812F
:102850006817790741F4828193814817590719F461
:10286000209378056DC02F5F283058F320937805AA
:10287000283009F065C083EE96E06FEF70E046E027
:1028800050E00E941515E3E0F7E086E0DF011D92BD
:102890008A95E9F77A97AAE0B5E086E00D90019273
:1028A0008150E1F7A9EFB6E0EAE0F5E086E00190BB
:1028B0000D928150E1F78091740590917505909388
:1028C0000A07809309078091760590917705909388
:1028D0000C0780930B078091DF069091E0069093A0
:1028E00000078093FF068091E1069091E2069093A5
:1028F00002078093010780E091E09093F8068093AF
:10290000F7069093F2068093F10688E090E09093AA
:10291000F4068093F30686E08093F50684E08093C6
:10292000F60688E096E09093F0068093EF0689E142
:1029300097E09093BF058093BE058AE290E01CC0AB
:10294000A3EEB6E0349686E001900D928150E1F757
:10295000A9EEB6E0EAE0F5E086E001900D92815044
:10296000E1F788E090E09093F0068093EF06809185
:10297000B5059091B6050E969093B6058093B50572
:10298000089580917A058F5F80937A05109278057B
:102990004BE01FC0249FF0011124E45EFA4F8281B6
:1029A000938120813181822B932B892B69F0809137
:1029B0007A0590E02285821B91098837910524F0E1
:1029C0001082118212821382809178058F5F80932A
:1029D0007805209178052830E8F20895109278055E
:1029E0009BE00CC0899FF0011124E45EFA4F108235
:1029F0001182128213828F5F80937805809178050F
:102A0000883080F30895FB01DC0102C005900D922F
:102A100041505040D8F70895FB01DC0102C00190FD
:102A20000D9241505040D8F70895DC0101C06D93DC
:102A300041505040E0F70895FB01DC0101900D92F8
:102A40000020E1F70895FB01DC014150504030F0D7
:102A50008D910190801919F40020B9F7881B990B0A
:102A600008950F931F93CF93DF938C01E091150886
:102A7000F0911608838181FF21C0C0E0D0E00DC035
:102A8000E0911508F091160820853185BF01F90104
:102A90000995892B11F0CFEFDFEFF80181918F01BC
:102AA000882371F7E0911508F0911608208531858B
:102AB0008AE0BF01F9010995892B11F0CFEFDFEF13
:102AC000CE01DF91CF911F910F910895AEE0B0E05C
:102AD000ECE6F5E10C9415180D891E8986E08C83CF
:102AE0001A8309838FEF9FE79E838D839E01275E64
:102AF0003F4FCE0101966F89788DA9010E948A15FA
:102B00002F813885020F131FF80110822E96E4E002
:102B10000C943118ABE0B0E0E0E9F5E10C94071853
:102B20003C012B015A01FC0117821682838181FD31
:102B300003C06FEF7FEFC6C19AE0892E1E01089493
:102B4000211C311CF3012381F20123FD859123FF18
:102B500081912F01882309F4B2C1853239F423FD14
:102B6000859123FF81912F01853229F490E0B301F3
:102B70000E947D17E7CF982FFF24EE249924FFE1D0
:102B8000FF15D0F09B3269F09C3228F4903259F056
:102B9000933291F40EC09D3249F0903369F441E0D4
:102BA00024C052E0F52A84E0F82A28C098E0F92AE7
:102BB00025C0E0E1FE2A22C0F7FC29C0892F8053FE
:102BC0008A3070F4F6FE05C0989C902C1124980E63
:102BD00015C0E89CE02C1124E80EF0E2FF2A0EC09C
:102BE0009E3229F4F6FC6BC140E4F42A07C09C36FF
:102BF00019F450E8F52A02C0983649F4F20123FD91
:102C0000959123FF91912F01992309F0B8CF892F36
:102C10008554833018F08052833038F444E050E01B
:102C2000A40EB51E5FE359830FC0933631F093377E
:102C300079F0933509F056C020C0F5018081898371
:102C400042E050E0A40EB51E610101E010E012C0A8
:102C5000F501C080D180F6FC03C06FEF7FEF02C0AA
:102C6000692D70E042E050E0A40EB51EC6010E943E
:102C700072178C015FE7F52214C0F501C080D18086
:102C8000F6FC03C06FEF7FEF02C0692D70E042E0F9
:102C900050E0A40EB51EC6010E9467178C0150E8D3
:102CA000F52AF3FE07C01AC080E290E0B3010E944B
:102CB0007D17EA948E2D90E008171907A8F30EC02F
:102CC000F601F7FC8591F7FE81916F0190E0B30169
:102CD0000E947D17E110EA94015010400115110582
:102CE00079F7EAC0943611F0993669F5F7FE08C015
:102CF000F501208131814281538184E090E00AC056
:102D0000F501808191819C01442737FD4095542F26
:102D100082E090E0A80EB91E9FE6F92257FF09C095
:102D200050954095309521953F4F4F4F5F4FE0E8CC
:102D3000FE2ACA01B901A1012AE030E00E94A917C8
:102D4000D82ED21840C0953729F41F2D1F7E2AE0B7
:102D500030E01DC01F2D197F9F3661F0903720F4A1
:102D6000983509F0ACC00FC0903739F0983709F0AA
:102D7000A6C004C028E030E00AC0106114FD146051
:102D800020E130E004C014FD166020E132E017FFBE
:102D900008C0F501608171818281938144E050E037
:102DA00008C0F50180819181BC0180E090E042E0A3
:102DB00050E0A40EB51EA1010E94A917D82ED2186A
:102DC0008FE7F82EF122F6FE0BC05EEFF522D91444
:102DD00038F4F4FE07C0F2FC05C08FEEF82202C002
:102DE0001D2D01C0192DF4FE0DC0FE01ED0DF11DCC
:102DF0008081803319F499EEF92208C01F5FF2FE3A
:102E000005C003C08F2D867809F01F5F0F2DF3FCDE
:102E100014C0F0FE0FC01E1510F09D2C0BC09D2C91
:102E20009E0C911A1E2D06C080E290E0B3010E9414
:102E30007D171F5F1E15C0F304C01E1510F4E11AA4
:102E400001C0EE2404FF0FC080E390E0B3010E94B4
:102E50007D1702FF1DC001FD03C088E790E00EC092
:102E600088E590E00BC0802F867891F001FF02C0CA
:102E70008BE201C080E2F7FC8DE290E0B3010E949A
:102E80007D1706C080E390E0B3010E947D179A94FD
:102E9000D914C0F3DA94F101ED0DF11D808190E0B9
:102EA000B3010E947D17DD20A9F706C080E290E003
:102EB000B3010E947D17EA94EE20C1F743CEF301DF
:102EC00066817781CB012B96E2E10C942318FC01FB
:102ED0000590615070400110D8F7809590958E0F45
:102EE0009F1F0895FC016150704001900110D8F7B8
:102EF000809590958E0F9F1F08950F931F93CF93EA
:102F0000DF938C01EB018B8181FF1BC082FF0DC021
:102F10002E813F818C819D812817390764F4E881D7
:102F2000F9810193F983E88306C0E885F985802F4C
:102F30000995892B31F48E819F8101969F838E8321
:102F400002C00FEF1FEFC801DF91CF911F910F91CA
:102F50000895FA01AA27283051F1203181F1E8942F
:102F60006F936E7F6E5F7F4F8F4F9F4FAF4FB1E07C
:102F70003ED0B4E03CD0670F781F891F9A1FA11D77
:102F8000680F791F8A1F911DA11D6A0F711D811D78
:102F9000911DA11D20D009F468943F912AE0269F3D
:102FA00011243019305D3193DEF6CF010895462F9C
:102FB0004770405D4193B3E00FD0C9F7F6CF462F7D
:102FC0004F70405D4A3318F0495D31FD40524193E6
:102FD00002D0A9F7EACFB4E0A695979587957795A3
:102FE0006795BA95C9F700976105710508959B012A
:102FF000AC010A2E06945795479537952795BA95B3
:10300000C9F7620F731F841F951FA01D08952F928B
:103010003F924F925F926F927F928F929F92AF9268
:10302000BF92CF92DF92EF92FF920F931F93CF93B5
:10303000DF93CDB7DEB7CA1BDB0B0FB6F894DEBF4C
:103040000FBECDBF09942A88398848885F846E8472
:103050007D848C849B84AA84B984C884DF80EE80BC
:10306000FD800C811B81AA81B981CE0FD11D0FB6C5
:10307000F894DEBF0FBECDBFED010895F894FFCFE9
:103080000A0A2A2A2A2A2A2A2A2A2A2A2048455487
:103090004E455476302E31202A2A2A2A2A2A2A2AD4
:1030A0002A2A2A2A2A2A2A2A0A005374617274694F
:1030B0006E67207549502000436F6E6669677572B0
:1030C000696E6720636C6F636B2000436F6E666987
:1030D000677572696E67206C6564200048656C6C6A
:1030E0006F2C2041646D5374616666212100576125
:1030F0006974656420666F72206E657764617461BF
:1031000000436F6E6E65637465640074656D700076
:10311000646973740068746D6C20636F6E74656E9F
:103120007400485454502F312E3020323030204F0C
:103130004B0D0A00436F6E74656E742D5479706583
:103140003A20746578742F68746D6C0D0A000D0A4E
:10315000003C68746D6C3E3C686561643E3C74691B
:10316000746C653E3A3A2041207765622070616751
:103170006520696E20616E20415652203A3A3C2FFC
:103180007469746C653E203C2F686561643E3C62E6
:103190006F64793E0D0A003C736372697074207429
:1031A0007970653D22746578742F6A617661736306
:1031B00072697074223E0D0A007661722068747420
:1031C00070203D2066616C73653B0A006874747002
:1031D000203D206E657720584D4C487474705265C0
:1031E000717565737428293B0D0A0066756E6374EA
:1031F000696F6E206D756C2876616C29207B726515
:1032000073203D207061727365496E742876616C1D
:10321000293B206966287265733E30297B207265E0
:103220007475726E202244697374616E63652069DF
:10323000733A20222B7265732A302E342B2220639E
:103240006D223B7D656C73657B72657475726E2053
:10325000224F7574206F6620626F756E6473227DD5
:103260007D3B0D0A0066756E6374696F6E20726532
:10327000706C6163652829207B0D0A006874747086
:103280002E6F70656E2822474554222C202231393A
:10329000322E3136382E352E31302F3F6172677322
:1032A0003D64697374222C2074727565293B0D0A84
:1032B00000687474702E6F6E7265616479737461E6
:1032C00074656368616E67653D66756E6374696F8A
:1032D0006E2829207B0A696628687474702E7265CE
:1032E0006164795374617465203D3D203429207BED
:1032F0000A646F63756D656E742E676574456C65E1
:103300006D656E74427949642827666F6F27292E90
:10331000696E6E657248544D4C203D206D756C2869
:10332000687474702E726573706F6E73655465780F
:1033300074293B0A7D0A7D0A687474702E73656E69
:1033400064286E756C6C293B0D0A007365745469B2
:103350006D656F75742028227265706C61636528D5
:1033600029222C20353030297D3B0A3C2F73637293
:103370006970743E003C7363726970742074797074
:10338000653D22746578742F6A6176617363726932
:103390007074223E0A2073657454696D656F75748C
:1033A0002028227265706C6163652829222C2031E7
:1033B000303030293B0D0A3C2F7363726970743EC4
:1033C0000D0A003C6469762069643D22666F6F22B5
:1033D0003E0A44697374616E63652069733A202DF7
:1033E0002D0A3C2F6469763E0D0A003C2F626F6403
:1033F000793E3C2F68746D6C3E0D0A0054656D700B
:1034000020436F6E74656E74003C68746D6C3E3C56
:10341000686561643E3C7469746C653E3C2F7469F8
:10342000746C653E3C2F686561643E3C626F6479F4
:103430003E0D0A0025640D0A004469737420436F31
:103440006E74656E7400300D0A0047455420008389
:1034500005830500000002000000002E0A000000A5
:103460000000000000FFFFFFFFFFFFFFFFFFFF0066
:00000001FF
